:100000000C9463000C948B000C948B000C948B006C
:100010000C948B000C948B000C948B000C948B0034
:100020000C948B000C948B000C948B000C948B0024
:100030000C948B000C948B000C948B000C948B0014
:100040000C943E010C948B000C948B000C948B0050
:100050000C948B000C948B000C948B000C948B00F4
:100060000C948B000C948B000000000024002700EF
:100070002A0000000000250028002B0000000000DE
:1000800023002600290004040404040404040202DA
:100090000202020203030303030301020408102007
:1000A0004080010204081020010204081020000012
:1000B0000007000201000003040600000000000029
:1000C00000000101FA0011241FBECFEFD8E0DEBF0F
:1000D000CDBF11E0A0E0B1E0E4EDF8E002C0059092
:1000E0000D92AE30B107D9F711E0AEE0B1E001C03A
:1000F0001D92AF31B107E1F710E0C4ECD0E004C0CD
:100100002297FE010E945904C23CD107C9F70E9400
:100110000E030C945D040C940000FC018AE091E055
:10012000918380838EEB90E0938382830895FC011A
:100130008AE091E09183808308951F93CF93DF93AA
:10014000EC01142F662369F06A817B8185E00E94AF
:100150001A0287E060E00E94B90288E061E00E9434
:10016000B902112369F06A817B8186E00E941A023C
:1001700089E060E00E94B9028AE061E00E94B90271
:10018000DF91CF911F9108951F93142F662341F0A3
:1001900087E061E00E94B90288E061E00E94B90254
:1001A000112341F089E061E00E94B9028AE061E038
:1001B0000E94B9021F910895FC018AE091E09183A9
:1001C0008083CF010E941F0308958130910541F47F
:1001D0006F5F7F4F71F48EE091E00E948D00089573
:1001E000892B39F46F5F7F4F21F48EE091E00E94FC
:1001F0009700089580E090E06FEF7FEF0E94E500A8
:10020000089581E090E06FEF7FEF0E94E500089590
:100210000F931F930EE011E0C80160E041E00E94DF
:100220009D0068EE73E080E090E00E948601C801C6
:1002300061E041E00E94C40068EE73E080E090E07D
:100240000E948601C80161E040E00E949D0068EEC6
:1002500073E080E090E00E948601C80161E041E027
:100260000E94C4001F910F91089585E061E00E94F3
:100270007A0286E061E00E947A0208951F920F924E
:100280000FB60F9211242F933F938F939F93AF93A9
:10029000BF938091160190911701A0911801B09120
:1002A000190130911A010196A11DB11D232F2D5F57
:1002B0002D3720F02D570196A11DB11D20931A0155
:1002C0008093160190931701A0931801B093190120
:1002D0008091120190911301A0911401B091150128
:1002E0000196A11DB11D8093120190931301A0935B
:1002F0001401B0931501BF91AF919F918F913F91E0
:100300002F910F900FBE0F901F9018959B01AC017D
:100310007FB7F8948091120190911301A09114017C
:10032000B091150166B5A89B05C06F3F19F0019605
:10033000A11DB11D7FBFBA2FA92F982F8827860F27
:10034000911DA11DB11D62E0880F991FAA1FBB1F3F
:100350006A95D1F7BC012DC0FFB7F89480911201C6
:1003600090911301A0911401B0911501E6B5A89BDD
:1003700005C0EF3F19F00196A11DB11DFFBFBA2FB7
:10038000A92F982F88278E0F911DA11DB11DE2E086
:10039000880F991FAA1FBB1FEA95D1F7861B970BE1
:1003A000885E9340C8F22150304040405040685130
:1003B0007C4F211531054105510571F6089578945A
:1003C00084B5826084BD84B5816084BD85B582605A
:1003D00085BD85B5816085BDEEE6F0E080818160F8
:1003E0008083E1E8F0E010828081826080838081F8
:1003F00081608083E0E8F0E0808181608083E1EBD0
:10040000F0E0808184608083E0EBF0E080818160B7
:100410008083EAE7F0E0808184608083808182606D
:100420008083808181608083808180688083109256
:10043000C10008951F93CF93DF93182FEB0161E064
:100440000E947A02209709F44AC0CF3FD10509F4EF
:1004500049C0E12FF0E0E255FF4F84918330C1F0B5
:10046000843028F4813051F08230B1F50CC08630F0
:1004700019F1873049F1843079F514C084B580686A
:1004800084BDC7BD33C084B5806284BDC8BD2EC0E5
:1004900080918000806880938000D0938900C09311
:1004A000880024C080918000806280938000D09377
:1004B0008B00C0938A001AC08091B000806880933E
:1004C000B000C093B30012C08091B00080628093EE
:1004D000B000C093B4000AC0C038D1051CF4812F0D
:1004E00060E002C0812F61E00E94B902DF91CF91EC
:1004F0001F910895CF93DF93482F50E0CA0186568D
:100500009F4FFC0134914A575F4FFA018491882331
:1005100069F190E0880F991FFC01E859FF4FA59100
:10052000B491FC01EE58FF4FC591D491662351F46C
:100530002FB7F8948C91932F909589238C93888171
:1005400089230BC0623061F42FB7F8948C91932FFC
:10055000909589238C938881832B88832FBF06C035
:100560009FB7F8948C91832B8C939FBFDF91CF9191
:100570000895482F50E0CA0182559F4FFC012491F5
:10058000CA0186569F4FFC0194914A575F4FFA016A
:100590003491332309F440C0222351F1233071F008
:1005A000243028F42130A1F0223011F514C0263077
:1005B000B1F02730C1F02430D9F404C0809180001C
:1005C0008F7703C0809180008F7D8093800010C062
:1005D00084B58F7702C084B58F7D84BD09C08091BA
:1005E000B0008F7703C08091B0008F7D8093B00002
:1005F000E32FF0E0EE0FFF1FEE58FF4FA591B491EF
:100600002FB7F894662321F48C919095892302C02A
:100610008C91892B8C932FBF08950895CF93DF93EE
:100620000E94DF010E940D030E943501C0E0D0E06E
:100630000E9408012097E1F30E940000F9CF0E9478
:10064000BF0308950F931F93CF93DF93BC018230B4
:10065000910510F462E070E0E0911D01F0911E013F
:1006600040E050E0A0E0B0E024C080819181861796
:100670009707D0F08617970771F4828193811097BE
:1006800029F013969C938E9312972CC090931E0181
:1006900080931D0127C04115510519F08417950756
:1006A00018F48D01AC01EF01DF01828193819C017F
:1006B000F9013097D1F641155105F9F0CA01861BB1
:1006C000970B8430910580F48A819B810115110577
:1006D00021F0F8019383828304C090931E018093DC
:1006E0001D01FE01329645C0FE01E80FF91F61931E
:1006F00071930297998388833CC080911B019091EC
:100700001C01892B41F48091020190910301909387
:100710001C0180931B01409104015091050141157A
:10072000510541F44DB75EB78091000190910101F0
:10073000481B590B20911B0130911C0124173507D0
:10074000B0F4CA01821B930B8617970780F0AB01A8
:100750004E5F5F4F8417950750F0420F531F509321
:100760001C0140931B01F9016193719302C0E0E009
:10077000F0E0CF01DF91CF911F910F910895CF93BA
:10078000DF939C01009709F48FC0EC0122971B8234
:100790001A8260911D0170911E016115710581F42D
:1007A00088819981820F931F20911B0130911C0138
:1007B0002817390739F5D0931C01C0931B0174C069
:1007C000DB0140E050E0AC17BD0708F1BB83AA8312
:1007D000FE0121913191E20FF31FAE17BF0779F4AB
:1007E0008D919C911197280F391F2E5F3F4F3983B0
:1007F000288312968D919C9113979B838A83411530
:10080000510571F4D0931E01C0931D014DC0129685
:100810008D919C911397AD01009711F0DC01D3CF1E
:10082000DA011396DC93CE931297FA01219131915C
:10083000E20FF31FCE17DF0769F488819981280F33
:10084000391F2E5F3F4FFA01318320838A819B81BC
:1008500093838283E0E0F0E0DB0112968D919C911E
:100860001397009719F0BC01FD01F6CFAB014E5F65
:100870005F4FDB018D919C91840F951F20911B018F
:1008800030911C012817390779F4309729F4109218
:100890001E0110921D0102C013821282425050406C
:1008A00050931C0140931B01DF91CF910895EE0FEF
:1008B000FF1F0590F491E02D099410E0C4ECD0E006
:1008C00004C0FE010E9459042296C63CD107C9F714
:0408D000F894FFCFCA
:0E08D40080001F010000000000009700DC0003
:00000001FF
